:100000000C9434000C943E000C943E000C943E0082
:100010000C943E000C943E000C943E000C943E0068
:100020000C943E000C943E000C943E000C943E0058
:100030000C943E000C943E000C943E000C943E0048
:100040000C943E000C943E000C943E000C943E0038
:100050000C943E000C943E000C943E000C943E0028
:100060000C943E000C943E0011241FBECFEFD8E04C
:10007000DEBFCDBF0E944F000C947D000C940000A9
:1000800087B1876087B987B1877E87B9089598B1AE
:10009000987F98B998B18770982B98B9089587B1CF
:1000A000876087B987B1877E87B988B1887F88B92B
:1000B000409A2FEF89E698E1215080409040E1F787
:1000C00000C0000088B1887F88B9419A2FEF89E687
:1000D00098E1215080409040E1F700C0000088B1D5
:1000E000887F88B9429A2FEF89E698E121508040B5
:0E00F0009040E1F700C00000D8CFF894FFCF99
:00000001FF
